:020000040800F2
:10000000A04A0020890100083D0700080D040008EF
:100010003907000861020008E30E00080000000034
:10002000000000000000000000000000ED0A0008D1
:100030006502000800000000B7090008010C000874
:10004000A3010008A3010008A3010008A301000800
:10005000A3010008A3010008A3010008A3010008F0
:10006000A3010008A3010008A3010008A3010008E0
:10007000A3010008A3010008A3010008A3010008D0
:10008000A3010008A3010008A3010008A3010008C0
:10009000A3010008A3010008A3010008A3010008B0
:1000A000A3010008A3010008A3010008A3010008A0
:1000B000A3010008A3010008A3010008A301000890
:1000C000A3010008A3010008A3010008A301000880
:1000D000A3010008650C0008A3010008A3010008A3
:1000E000A3010008A3010008A301000800F002F822
:1000F00000F03AF80AA090E8000C82448344AAF188
:100100000107DA4501D100F02FF8AFF2090EBAE885
:100110000F0013F0010F18BFFB1A43F0010318473B
:100120005C0F00007C0F0000103A24BF78C878C133
:10013000FAD8520724BF30C830C144BF04680C60ED
:10014000704700000023002400250026103A28BF35
:1001500078C1FBD8520728BF30C148BF0B60704739
:100160001FB51FBD10B510BD00F033F81146FFF7E5
:10017000F7FF00F003FF00F051F803B4FFF7F2FFC0
:1001800003BC00F0B0FE0000094880470948004762
:10019000FEE7FEE7FEE7FEE7FEE7FEE7FEE7FEE737
:1001A000FEE7FEE704480549054A064B7047000094
:1001B000050C0008ED000008A0440020A04A002023
:1001C000A0460020A0460020704770477047704747
:1001D0007047754600F02CF8AE4605006946534658
:1001E00020F00700854618B020B5FFF7DBFFBDE81B
:1001F00020404FF000064FF000074FF000084FF08E
:10020000000B21F00701AC46ACE8C009ACE8C0091E
:10021000ACE8C009ACE8C0098D46704710B504468B
:10022000AFF300802046BDE81040FFF7A6BF0000F6
:10023000004870473C44002010B50121074800F0F9
:100240009DF84FF4A06000F0B3FA00F05FFA00F000
:100250004DFE4FF4613000F0C1FE10BD00023000D1
:1002600000BFFEE770472DE9F04102460025002659
:10027000002000230024002791F803C00CF00F0594
:1002800091F803C00CF0100CBCF1000F03D091F8F2
:1002900002C04CEA050591F800C0BCF1000F31D056
:1002A000146800202BE04FF0010C0CFA00F3B1F8B9
:1002B00000C00CEA03069E4220D183004FF00F0CD1
:1002C0000CFA03F7BC4305FA03FC4CEA040491F86A
:1002D00003C0BCF1280F06D14FF0010C0CFA00FC52
:1002E000C2F814C00AE091F803C0BCF1480F05D170
:1002F0004FF0010C0CFA00FCC2F810C0401C08289A
:10030000D1D31460B1F800C0BCF1FF0F34DD5468E4
:1003100000202EE000F1080C4FF0010808FA0CF361
:10032000B1F800C00CEA03069E4221D183004FF0D1
:100330000F0C0CFA03F7BC4305FA03FC4CEA040467
:1003400091F803C0BCF1280F05D100F1080C08FAA0
:100350000CF8C2F8148091F803C0BCF1480F07D123
:1003600000F1080C4FF0010808FA0CF8C2F81080F0
:10037000401C0828CED35460BDE8F081F0B50A4691
:10038000002300240021002500F00046B6F1004FB4
:1003900002D11D4EF16901E01B4E7168C0F30345A7
:1003A00083B200F44016B6F5401F08D121F0706109
:1003B000154E766826F07066134F7E6012E000F4EA
:1003C0008016B6F5801F06D1032606FA05F4A14370
:1003D00041F0706106E0460D360103FA06F6B143BE
:1003E00041F0706122B1460D360103FA06F6314341
:1003F00000F00046B6F1004F02D1034EF16101E07A
:10040000014E7160F0BD00000000014000BFFEE73A
:1004100070B502460024002500230020958A138B26
:100420001B0445EA030626F07F4404EA01068E42D7
:1004300001D1012000E0002070BD21B1028842F00E
:100440000102028004E002884FF6FE731A40028027
:100450007047000000B585B00121480500F0ACFAF6
:100460000121092000F0C8FA01210220FFF786FFD0
:100470004FF44070ADF8000003208DF802001C20FE
:100480008DF8030069461148FFF7EDFE104800F0B3
:1004900023F80020ADF808004BF6FF70ADF80A0015
:1004A0003020ADF80C004FF48060ADF80E00000174
:1004B000ADF810000748019001A9054800F05EF86A
:1004C00001210348FFF7B9FF05B000BD000C014052
:1004D00000540040801A060010B504460B488442C0
:1004E00009D10121480500F077FA00214FF40010EE
:1004F00000F072FA08E00121880500F06DFA002191
:100500004FF4800000F068FA10BD00000054004075
:1005100021B1028842F48072028004E002884FF622
:10052000FF631A400280704721B1028842F40072D2
:10053000028004E002884FF6FF531A4002807047A1
:100540000CB50246002000230193009300920B0F8C
:10055000019321F07F41019B1BB1009B1433009359
:1005600003E0090C009B18330093009B1B680B40B1
:100570000BB1012000E000200CBD00002DE9F0438C
:1005800085B004460D460026B1460427DFF8CC802E
:10059000A6884FF6C0700640684600F03DFADDF8C8
:1005A00008802F48B8FBF0F01FFA80F946EA0906E8
:1005B000A68020884FF6FE71084020800026294939
:1005C000286888420CD828684000B8FBF0F087B251
:1005D000042F00DA04273E4309F10100208427E0BC
:1005E000E8884BF6FF71884206D1286800EB40008E
:1005F000B8FBF0F087B209E0286800EBC00101EB1E
:100600000010B8FBF0F087B247F48047C7F30B0047
:1006100008B947F0010747F4004006434FF49670CD
:1006200009FB00F04FF47A7190FBF1F0401C20843C
:10063000A683208840F00100208026884FF6F53000
:100640000640A8886989084306432680A889298925
:100650000843208105B0BDE8F083000000127A0055
:1006600040420F00A086010012B141F0010102E0FA
:100670004FF6FE73194001827047018270470000F7
:1006800070B504460D4600BF4FF400311C48FFF71B
:1006900057FF0028F8D101211948FFF739FF00BFA3
:1006A00018491748FFF7B4FE0028F9D00022782136
:1006B0001348FFF7D9FF00BF13491148FFF7A8FE01
:1006C0000028F9D021460E48FFF7D7FF00BF0E499A
:1006D000891C0B48FFF79CFE0028F8D029460848E3
:1006E000FFF7CBFF00BF0849891C0548FFF790FEC4
:1006F0000028F8D001210248FFF716FF70BD000066
:1007000000540040010003008200070008B50121E9
:10071000102000F071F94FF40050ADF800001020E7
:100720008DF8030003208DF8020069460148FFF7A9
:100730009AFD08BD0010014000BFFEE770470000B1
:1007400070B5002100230F22C47804B3154C24682F
:1007500004F4E064C4F5E064210AC1F10403CA4072
:10076000447804FA03F184781440214309010E4CC3
:100770000678A155047804F01F050124AC400578E3
:100780006D11AD0005F1E025C5F8004109E00478E0
:1007900004F01F050124AC40044D0678761145F89D
:1007A000264070BD0CED00E000E400E080E100E0D8
:1007B00002490143024A1160704700000000FA0537
:1007C0000CED00E070B500240CE0002506E00020F0
:1007D000074901EBC5010855681CC5B2802DF6DB41
:1007E000601CC4B2082CF0DB00F072F870BD000091
:1007F0003C40002010B5FFF72DFE642000F098FB70
:100800000021AE2000F0C7F80021D52000F0C3F889
:100810000021502000F0BFF80021A82000F0BBF814
:1008200000213F2000F0B7F80021D32000F0B3F8FA
:100830000021084600F0AFF80021402000F0ABF89E
:1008400000218D2000F0A7F80021142000F0A3F86B
:100850000021202000F09FF80021022000F09BF8EA
:100860000021A12000F097F80021C02000F093F8AB
:100870000021DA2000F08FF80021122000F08BF820
:100880000021812000F087F80021EF2000F083F89C
:100890000021D92000F07FF80021F12000F07BF842
:1008A0000021DB2000F077F80021302000F073F801
:1008B0000021A42000F06FF80021A62000F06BF8C2
:1008C0000021AF2000F067F8FFF77CFF10BD0000AB
:1008D00070B500241CE004F1B001C8B2002100F0A2
:1008E0005AF80021084600F056F80021102000F0C8
:1008F00052F8002508E0084901EBC501085D012117
:1009000000F049F8681CC5B2802DF4DB601CC4B24D
:10091000082CE0DB70BD00003C4000202DE9F05FBA
:1009200006460F4690469946DDF828B04FF0000A7B
:100930003D4615E02946304600F016F8344609E0F9
:100940000AF17F01091B1BF80100012100F023F8C7
:10095000601CC4B24445F3DB0AF1800A681CC5B2CE
:100960004D45E7DBBDE8F09F70B504460D4605F147
:10097000B001C8B2002100F00EF8102141EA1410B5
:10098000002100F008F804F00F0141F001000021FF
:1009900000F001F870BD70B505460C4624B9294633
:1009A0000020FFF76DFE05E0012C03D12946402011
:1009B000FFF766FE70BD704729B1064AD26902434F
:1009C000044BDA6104E0034AD2698243014BDA61E5
:1009D000704700000010024029B1064A1269024324
:1009E000044B1A6104E0034A12698243014B1A6105
:1009F000704700000010024029B1064A9269024384
:100A0000044B9A6104E0034A92698243014B9A6164
:100A1000704700000010024030B500210022002481
:100A200000232D4D6D6805F00C0121B1042905D07E
:100A3000082923D105E0294D056022E0274D0560F6
:100A40001FE0254D6D6805F47012234D6D6805F4A7
:100A50008034022505EB92421CB9214D55430560B7
:100A60000BE01D4D6D6805F400351DB11C4D55435F
:100A7000056002E0194D5543056002E0174D056021
:100A800000BF00BF144D6D6805F0F0010909154D58
:100A90006B5C0568DD4045600F4D6D6805F4E061F5
:100AA000090A104D6B5C4568DD4085600A4D6D6834
:100AB00005F46051C90A0B4D6B5C4568DD40C560AB
:100AC000054D6D6805F44041890B074D6B5CC568A9
:100AD000B5FBF3F5056130BD0010024000127A004D
:100AE00000093D002800002038000020704710B5A4
:100AF00000F002F810BD00000CB50020019000903D
:100B00003348006840F480303149086000BF304805
:100B1000006800F4003000900198401C019000989B
:100B200018B90198B0F5A06FF1D12948006800F418
:100B3000003010B10120009001E0002000900098EA
:100B4000012843D12348006840F010002149086083
:100B50000846006820F0030008600846006840F07E
:100B6000020008601A484068194948600846406811
:100B700048600846406840F4806048600846406825
:100B800020F47C1048600846406840F4E810486053
:100B90000846006840F08070086000BF0C4800689C
:100BA00000F000700028F9D00948406820F00300E8
:100BB000074948600846406840F00200486000BFAE
:100BC0000348406800F00C000828F9D10CBD000073
:100BD0000010024000200240042808D14FF0E0211C
:100BE000096941F004014FF0E022116107E04FF084
:100BF000E021096921F004014FF0E0221161704702
:100C00007047000010B51348006840F0010011491A
:100C1000086008464068104908400E494860084688
:100C200000680E4908400B4908600846006820F437
:100C3000802008600846406820F4FE0048604FF4B9
:100C40001F008860FFF753FF4FF000600449086001
:100C500010BD0000001002400000FFF8FFFFF6FE8C
:100C600008ED00E010B540F225512F4800F074F86F
:100C7000002856D02C4800F02BF9C4B2EE2C0BD132
:100C80002A48007840B900202949086029490860AD
:100C900001202649087010BDED2C1FD12348007893
:100CA00001281BD123480068B0F5806F16D30020BF
:100CB0001E4908701F4908601F480078401CC0B2D8
:100CC0001D490870102801DB00200870012116481A
:100CD00000F003F9012016490860DCE715480068B8
:100CE000B0F5806F10D21148007801280CD113485C
:100CF0001149097800EB81210E4802680068401C08
:100D00000C4B18608C540BE000200A49086007491E
:100D100008700120064908600021034800F0DDF852
:100D200000BF00BFB7E700000038014010000020FE
:100D3000B40122420C000020080000203C000020EA
:100D400021B1828942F40052828104E082894DF609
:100D5000FF731A408281704770B502460024002359
:100D60000025002040F66A16B14200D100BFC1F351
:100D7000421501F01F03012606FA03F3012D02D1EB
:100D80009689334006E0022D02D1168A334001E0F5
:100D9000968A33400C12012606FA04F41688344071
:100DA00013B10CB1012000E0002070BDF0B5034686
:100DB000002400260025002040F66A17B94200D121
:100DC00000BF1846C1F3421401F01F06012707FABD
:100DD00006F5012C01D10C3004E0022C01D11030B9
:100DE00000E014301AB107682F43076002E007687B
:100DF000AF430760F0BD00002DE9F04786B005461F
:100E00000E460024A24600BFA1460027B08900B1CB
:100E100000BF2F462C8A4CF6FF700440F088044334
:100E20002C82AC894EF6F3100440B0883189084317
:100E3000718908430443AC81AC8A4FF6FF400440FB
:100E4000B0890443AC8201A8FFF7E6FD1F48874242
:100E500002D1DDF810A001E0DDF80CA0A88900F4B3
:100E6000004040B10AEBCA0000EB0A1031684900AB
:100E7000B0FBF1F807E00AEBCA0000EB0A1031689A
:100E80008900B0FBF1F86420B8FBF0F00401200900
:100E9000642101FB1089A88900F4004040B1322090
:100EA00000EBC900B0FBF1F000F00700044308E0DC
:100EB000322000EB09106421B0FBF1F000F00F00CC
:100EC00004432C8106B0BDE8F087000000380140E3
:100ED00001468888C0F308007047C1F30802828089
:100EE000704700BFFEE700BF7047000010B56FF00D
:100EF0000400FFF771FE0A4800680A49B0FBF1F0F0
:100F0000094908700846007800EB4001C1EBC010A9
:100F10004FF6FF7101EAC0000449088010BD0000CF
:100F20001400002000127A000000002002000020BF
:100F30000146114A12884A434FF0E0235A610022C9
:100F40009A611A46126942F001021A6100BF4FF01D
:100F5000E022106900F001021AB100F48032002A88
:100F6000F5D04FF0E022126922F001024FF0E023A9
:100F70001A6100229A6170470200002008B5FFF74D
:100F80005BF9FFF737FCFFF71DFC01200F490860F4
:100F90001BE00F4800780F490978884215D00E48A9
:100FA0000C49097800EB8120082380220021009061
:100FB0000846FFF7B3FC07480078401CC0B205495B
:100FC0000870102801DB00200870E2E7B40122421B
:100FD00008000020090000203C00002010B586B069
:100FE0000446012144F20400FFF706FD4FF40070AF
:100FF000ADF8140003208DF8160018208DF81700A6
:1010000005A91C48FFF72FF94FF48060ADF81400D4
:1010100004208DF8170005A91648FFF724F92520AC
:101020008DF8000000208DF801008DF802000120ED
:101030008DF803006846FFF783FB01940020ADF8AC
:101040000800ADF80A00ADF80C00ADF810000C2057
:10105000ADF80E0001A90848FFF7CEFE012240F2CC
:1010600025510548FFF7A2FE01210348FFF768FE5E
:1010700006B010BD00080140003801409C10000877
:10108000000000203C00000028010008D8100008E3
:101090003C000020644A00004401000800000000F9
:1010A0000000000000000000000000000000000040
:1010B00000A24A0400000000000000000102030436
:1010C00006070809000000000102030401020304EE
:0810D0000607080902040608E6
:040000050800018965
:00000001FF
